{
  "_format": "hh-sol-artifact-1",
  "contractName": "Voting",
  "sourceName": "contracts/Vote.sol",
  "abi": [
    {
      "inputs": [
        {
          "internalType": "string[]",
          "name": "candidateNames",
          "type": "string[]"
        },
        {
          "internalType": "address[]",
          "name": "electoralRoll",
          "type": "address[]"
        },
        {
          "internalType": "uint256",
          "name": "startDate",
          "type": "uint256"
        },
        {
          "internalType": "uint256",
          "name": "endDate",
          "type": "uint256"
        }
      ],
      "stateMutability": "nonpayable",
      "type": "constructor"
    },
    {
      "inputs": [
        {
          "internalType": "uint256",
          "name": "",
          "type": "uint256"
        }
      ],
      "name": "candidates",
      "outputs": [
        {
          "internalType": "string",
          "name": "name",
          "type": "string"
        },
        {
          "internalType": "uint256",
          "name": "voteCount",
          "type": "uint256"
        }
      ],
      "stateMutability": "view",
      "type": "function"
    },
    {
      "inputs": [
        {
          "internalType": "address",
          "name": "to",
          "type": "address"
        },
        {
          "internalType": "uint256",
          "name": "vote_",
          "type": "uint256"
        }
      ],
      "name": "delegate",
      "outputs": [],
      "stateMutability": "nonpayable",
      "type": "function"
    },
    {
      "inputs": [],
      "name": "getEndDate",
      "outputs": [
        {
          "internalType": "uint256",
          "name": "",
          "type": "uint256"
        }
      ],
      "stateMutability": "view",
      "type": "function"
    },
    {
      "inputs": [],
      "name": "getStartDate",
      "outputs": [
        {
          "internalType": "uint256",
          "name": "",
          "type": "uint256"
        }
      ],
      "stateMutability": "view",
      "type": "function"
    },
    {
      "inputs": [],
      "name": "getVoters",
      "outputs": [
        {
          "internalType": "address[]",
          "name": "",
          "type": "address[]"
        }
      ],
      "stateMutability": "view",
      "type": "function"
    },
    {
      "inputs": [],
      "name": "isVotingOpen",
      "outputs": [],
      "stateMutability": "view",
      "type": "function"
    },
    {
      "inputs": [],
      "name": "responisbleOfElection",
      "outputs": [
        {
          "internalType": "address",
          "name": "",
          "type": "address"
        }
      ],
      "stateMutability": "view",
      "type": "function"
    },
    {
      "inputs": [
        {
          "internalType": "uint256",
          "name": "candidate_",
          "type": "uint256"
        }
      ],
      "name": "showVotePerCandidate",
      "outputs": [
        {
          "internalType": "uint256",
          "name": "voteCount_",
          "type": "uint256"
        }
      ],
      "stateMutability": "view",
      "type": "function"
    },
    {
      "inputs": [],
      "name": "showWeight",
      "outputs": [
        {
          "internalType": "uint256",
          "name": "weight_",
          "type": "uint256"
        }
      ],
      "stateMutability": "view",
      "type": "function"
    },
    {
      "inputs": [
        {
          "internalType": "uint256",
          "name": "candidate",
          "type": "uint256"
        }
      ],
      "name": "vote",
      "outputs": [],
      "stateMutability": "nonpayable",
      "type": "function"
    },
    {
      "inputs": [
        {
          "internalType": "address",
          "name": "",
          "type": "address"
        }
      ],
      "name": "voters",
      "outputs": [
        {
          "internalType": "uint256",
          "name": "weight",
          "type": "uint256"
        },
        {
          "internalType": "bool",
          "name": "voted",
          "type": "bool"
        },
        {
          "internalType": "address",
          "name": "delegate",
          "type": "address"
        },
        {
          "internalType": "uint256",
          "name": "vote",
          "type": "uint256"
        },
        {
          "internalType": "uint256",
          "name": "voteDelagated",
          "type": "uint256"
        }
      ],
      "stateMutability": "view",
      "type": "function"
    },
    {
      "inputs": [
        {
          "internalType": "uint256",
          "name": "",
          "type": "uint256"
        }
      ],
      "name": "votersList",
      "outputs": [
        {
          "internalType": "address",
          "name": "",
          "type": "address"
        }
      ],
      "stateMutability": "view",
      "type": "function"
    },
    {
      "inputs": [],
      "name": "winnerName",
      "outputs": [
        {
          "internalType": "string",
          "name": "winnerName_",
          "type": "string"
        }
      ],
      "stateMutability": "view",
      "type": "function"
    },
    {
      "inputs": [],
      "name": "winnerVoteCount",
      "outputs": [
        {
          "internalType": "uint256",
          "name": "winnerVoteCount_",
          "type": "uint256"
        }
      ],
      "stateMutability": "view",
      "type": "function"
    },
    {
      "inputs": [],
      "name": "winningCandidate",
      "outputs": [
        {
          "internalType": "uint256",
          "name": "winner",
          "type": "uint256"
        }
      ],
      "stateMutability": "view",
      "type": "function"
    }
  ],
  "bytecode": "0x60806040523480156200001157600080fd5b50604051620023353803806200233583398181016040528101906200003791906200073b565b336000806101000a81548173ffffffffffffffffffffffffffffffffffffffff021916908373ffffffffffffffffffffffffffffffffffffffff1602179055506001600460008060009054906101000a900473ffffffffffffffffffffffffffffffffffffffff1673ffffffffffffffffffffffffffffffffffffffff1673ffffffffffffffffffffffffffffffffffffffff1681526020019081526020016000206000018190555080821062000125576040517f08c379a00000000000000000000000000000000000000000000000000000000081526004016200011c9062000849565b60405180910390fd5b816002819055508060038190555060005b845181101562000203576005604051806040016040528087848151811062000187577f4e487b7100000000000000000000000000000000000000000000000000000000600052603260045260246000fd5b60200260200101518152602001600081525090806001815401808255809150506001900390600052602060002090600202016000909190919091506000820151816000019080519060200190620001e09291906200048c565b506020820151816001015550508080620001fa9062000a19565b91505062000136565b5060008054906101000a900473ffffffffffffffffffffffffffffffffffffffff1673ffffffffffffffffffffffffffffffffffffffff163373ffffffffffffffffffffffffffffffffffffffff161462000295576040517f08c379a00000000000000000000000000000000000000000000000000000000081526004016200028c9062000827565b60405180910390fd5b60005b83518110156200048157600160046000868481518110620002e2577f4e487b7100000000000000000000000000000000000000000000000000000000600052603260045260246000fd5b602002602001015173ffffffffffffffffffffffffffffffffffffffff1673ffffffffffffffffffffffffffffffffffffffff168152602001908152602001600020600001819055506000600460008684815181106200036b577f4e487b7100000000000000000000000000000000000000000000000000000000600052603260045260246000fd5b602002602001015173ffffffffffffffffffffffffffffffffffffffff1673ffffffffffffffffffffffffffffffffffffffff16815260200190815260200160002060010160006101000a81548160ff021916908315150217905550600184828151811062000403577f4e487b7100000000000000000000000000000000000000000000000000000000600052603260045260246000fd5b60200260200101519080600181540180825580915050600190039060005260206000200160009091909190916101000a81548173ffffffffffffffffffffffffffffffffffffffff021916908373ffffffffffffffffffffffffffffffffffffffff1602179055508080620004789062000a19565b91505062000298565b505050505062000bd7565b8280546200049a90620009ad565b90600052602060002090601f016020900481019282620004be57600085556200050a565b82601f10620004d957805160ff19168380011785556200050a565b828001600101855582156200050a579182015b8281111562000509578251825591602001919060010190620004ec565b5b5090506200051991906200051d565b5090565b5b80821115620005385760008160009055506001016200051e565b5090565b6000620005536200054d8462000894565b6200086b565b905080838252602082019050828560208602820111156200057357600080fd5b60005b85811015620005a757816200058c888262000686565b84526020840193506020830192505060018101905062000576565b5050509392505050565b6000620005c8620005c284620008c3565b6200086b565b90508083825260208201905082856020860282011115620005e857600080fd5b60005b858110156200063757815167ffffffffffffffff8111156200060c57600080fd5b8086016200061b8982620006f7565b85526020850194506020840193505050600181019050620005eb565b5050509392505050565b6000620006586200065284620008f2565b6200086b565b9050828152602081018484840111156200067157600080fd5b6200067e84828562000977565b509392505050565b600081519050620006978162000ba3565b92915050565b600082601f830112620006af57600080fd5b8151620006c18482602086016200053c565b91505092915050565b600082601f830112620006dc57600080fd5b8151620006ee848260208601620005b1565b91505092915050565b600082601f8301126200070957600080fd5b81516200071b84826020860162000641565b91505092915050565b600081519050620007358162000bbd565b92915050565b600080600080608085870312156200075257600080fd5b600085015167ffffffffffffffff8111156200076d57600080fd5b6200077b87828801620006ca565b945050602085015167ffffffffffffffff8111156200079957600080fd5b620007a7878288016200069d565b9350506040620007ba8782880162000724565b9250506060620007cd8782880162000724565b91505092959194509250565b6000620007e860328362000928565b9150620007f58262000b05565b604082019050919050565b60006200080f603d8362000928565b91506200081c8262000b54565b604082019050919050565b600060208201905081810360008301526200084281620007d9565b9050919050565b60006020820190508181036000830152620008648162000800565b9050919050565b6000620008776200088a565b9050620008858282620009e3565b919050565b6000604051905090565b600067ffffffffffffffff821115620008b257620008b162000ac5565b5b602082029050602081019050919050565b600067ffffffffffffffff821115620008e157620008e062000ac5565b5b602082029050602081019050919050565b600067ffffffffffffffff82111562000910576200090f62000ac5565b5b6200091b8262000af4565b9050602081019050919050565b600082825260208201905092915050565b600062000946826200094d565b9050919050565b600073ffffffffffffffffffffffffffffffffffffffff82169050919050565b6000819050919050565b60005b83811015620009975780820151818401526020810190506200097a565b83811115620009a7576000848401525b50505050565b60006002820490506001821680620009c657607f821691505b60208210811415620009dd57620009dc62000a96565b5b50919050565b620009ee8262000af4565b810181811067ffffffffffffffff8211171562000a105762000a0f62000ac5565b5b80604052505050565b600062000a26826200096d565b91507fffffffffffffffffffffffffffffffffffffffffffffffffffffffffffffffff82141562000a5c5762000a5b62000a67565b5b600182019050919050565b7f4e487b7100000000000000000000000000000000000000000000000000000000600052601160045260246000fd5b7f4e487b7100000000000000000000000000000000000000000000000000000000600052602260045260246000fd5b7f4e487b7100000000000000000000000000000000000000000000000000000000600052604160045260246000fd5b6000601f19601f8301169050919050565b7f4f6e6c7920726573706f6e6973626c654f66456c656374696f6e2063616e206760008201527f69766520726967687420746f20766f74652e0000000000000000000000000000602082015250565b7f4c61206461746520646520646562757420646f69742065747265206176616e7460008201527f206c6120646174652064652066696e2064657320656c656374696f6e73000000602082015250565b62000bae8162000939565b811462000bba57600080fd5b50565b62000bc8816200096d565b811462000bd457600080fd5b50565b61174e8062000be76000396000f3fe608060405234801561001057600080fd5b50600436106100f55760003560e01c80639ffd944b11610097578063d28178d711610066578063d28178d71461027b578063e2ba53f014610299578063f89e537f146102b7578063fa7f1bae146102e7576100f5565b80639ffd944b146101ed578063a3ec138d1461020b578063b13564881461023f578063cdd722531461025d576100f5565b80633477ee2e116100d35780633477ee2e1461015057806362946dfd1461018157806372ce73ab1461019f57806378f305c6146101cf576100f5565b80630121b93f146100fa578063026e402b146101165780632f22850d14610132575b600080fd5b610114600480360381019061010f9190610f43565b6102f1565b005b610130600480360381019061012b9190610f07565b61053f565b005b61013a610950565b60405161014791906112fe565b60405180910390f35b61016a60048036038101906101659190610f43565b6109aa565b6040516101789291906111ce565b60405180910390f35b610189610a66565b60405161019691906112fe565b60405180910390f35b6101b960048036038101906101b49190610f43565b610ab5565b6040516101c6919061116f565b60405180910390f35b6101d7610af4565b6040516101e491906112fe565b60405180910390f35b6101f5610afe565b604051610202919061116f565b60405180910390f35b61022560048036038101906102209190610ede565b610b22565b604051610236959493929190611319565b60405180910390f35b610247610b85565b60405161025491906112fe565b60405180910390f35b610265610b8f565b604051610272919061118a565b60405180910390f35b610283610c1d565b60405161029091906112fe565b60405180910390f35b6102a1610cf1565b6040516102ae91906111ac565b60405180910390f35b6102d160048036038101906102cc9190610f43565b610dd3565b6040516102de91906112fe565b60405180910390f35b6102ef610e28565b005b6102f9610e28565b6000600460003373ffffffffffffffffffffffffffffffffffffffff1673ffffffffffffffffffffffffffffffffffffffff1681526020019081526020016000209050600081600001541415610384576040517f08c379a000000000000000000000000000000000000000000000000000000000815260040161037b906111fe565b60405180910390fd5b8060010160009054906101000a900460ff16156103d6576040517f08c379a00000000000000000000000000000000000000000000000000000000081526004016103cd9061123e565b60405180910390fd5b60018160010160006101000a81548160ff021916908315150217905550818160020181905550600181600001541161047057600160058381548110610444577f4e487b7100000000000000000000000000000000000000000000000000000000600052603260045260246000fd5b9060005260206000209060020201600101600082825461046491906113c1565b9250508190555061053b565b6001600583815481106104ac577f4e487b7100000000000000000000000000000000000000000000000000000000600052603260045260246000fd5b906000526020600020906002020160010160008282546104cc91906113c1565b9250508190555060016005826003015481548110610513577f4e487b7100000000000000000000000000000000000000000000000000000000600052603260045260246000fd5b9060005260206000209060020201600101600082825461053391906113c1565b925050819055505b5050565b610547610e28565b6000600460003373ffffffffffffffffffffffffffffffffffffffff1673ffffffffffffffffffffffffffffffffffffffff16815260200190815260200160002090508060010160009054906101000a900460ff16156105dc576040517f08c379a00000000000000000000000000000000000000000000000000000000081526004016105d39061125e565b60405180910390fd5b3373ffffffffffffffffffffffffffffffffffffffff168373ffffffffffffffffffffffffffffffffffffffff16141561064b576040517f08c379a0000000000000000000000000000000000000000000000000000000008152600401610642906112de565b60405180910390fd5b6002816000015410610692576040517f08c379a00000000000000000000000000000000000000000000000000000000081526004016106899061129e565b60405180910390fd5b5b600073ffffffffffffffffffffffffffffffffffffffff16600460008573ffffffffffffffffffffffffffffffffffffffff1673ffffffffffffffffffffffffffffffffffffffff16815260200190815260200160002060010160019054906101000a900473ffffffffffffffffffffffffffffffffffffffff1673ffffffffffffffffffffffffffffffffffffffff161461080257600460008473ffffffffffffffffffffffffffffffffffffffff1673ffffffffffffffffffffffffffffffffffffffff16815260200190815260200160002060010160019054906101000a900473ffffffffffffffffffffffffffffffffffffffff1692503373ffffffffffffffffffffffffffffffffffffffff168373ffffffffffffffffffffffffffffffffffffffff1614156107fd576040517f08c379a00000000000000000000000000000000000000000000000000000000081526004016107f4906112be565b60405180910390fd5b610693565b60018160010160006101000a81548160ff021916908315150217905550828160010160016101000a81548173ffffffffffffffffffffffffffffffffffffffff021916908373ffffffffffffffffffffffffffffffffffffffff1602179055506000600460008573ffffffffffffffffffffffffffffffffffffffff1673ffffffffffffffffffffffffffffffffffffffff16815260200190815260200160002090508060010160009054906101000a900460ff1615610924576001600584815481106108f8577f4e487b7100000000000000000000000000000000000000000000000000000000600052603260045260246000fd5b9060005260206000209060020201600101600082825461091891906113c1565b9250508190555061094a565b600181600001600082825461093991906113c1565b925050819055508281600301819055505b50505050565b6000600561095c610c1d565b81548110610993577f4e487b7100000000000000000000000000000000000000000000000000000000600052603260045260246000fd5b906000526020600020906002020160010154905090565b600581815481106109ba57600080fd5b90600052602060002090600202016000915090508060000180546109dd90611492565b80601f0160208091040260200160405190810160405280929190818152602001828054610a0990611492565b8015610a565780601f10610a2b57610100808354040283529160200191610a56565b820191906000526020600020905b815481529060010190602001808311610a3957829003601f168201915b5050505050908060010154905082565b600080600460003373ffffffffffffffffffffffffffffffffffffffff1673ffffffffffffffffffffffffffffffffffffffff1681526020019081526020016000209050806000015491505090565b60018181548110610ac557600080fd5b906000526020600020016000915054906101000a900473ffffffffffffffffffffffffffffffffffffffff1681565b6000600254905090565b60008054906101000a900473ffffffffffffffffffffffffffffffffffffffff1681565b60046020528060005260406000206000915090508060000154908060010160009054906101000a900460ff16908060010160019054906101000a900473ffffffffffffffffffffffffffffffffffffffff16908060020154908060030154905085565b6000600354905090565b60606001805480602002602001604051908101604052809291908181526020018280548015610c1357602002820191906000526020600020905b8160009054906101000a900473ffffffffffffffffffffffffffffffffffffffff1673ffffffffffffffffffffffffffffffffffffffff1681526020019060010190808311610bc9575b5050505050905090565b6000806000905060005b600580549050811015610cec578160058281548110610c6f577f4e487b7100000000000000000000000000000000000000000000000000000000600052603260045260246000fd5b9060005260206000209060020201600101541115610cd95760058181548110610cc1577f4e487b7100000000000000000000000000000000000000000000000000000000600052603260045260246000fd5b90600052602060002090600202016001015491508092505b8080610ce4906114c4565b915050610c27565b505090565b60606005610cfd610c1d565b81548110610d34577f4e487b7100000000000000000000000000000000000000000000000000000000600052603260045260246000fd5b90600052602060002090600202016000018054610d5090611492565b80601f0160208091040260200160405190810160405280929190818152602001828054610d7c90611492565b8015610dc95780601f10610d9e57610100808354040283529160200191610dc9565b820191906000526020600020905b815481529060010190602001808311610dac57829003601f168201915b5050505050905090565b600060058281548110610e0f577f4e487b7100000000000000000000000000000000000000000000000000000000600052603260045260246000fd5b9060005260206000209060020201600101549050919050565b426002541115610e6d576040517f08c379a0000000000000000000000000000000000000000000000000000000008152600401610e649061121e565b60405180910390fd5b426003541015610eb2576040517f08c379a0000000000000000000000000000000000000000000000000000000008152600401610ea99061127e565b60405180910390fd5b565b600081359050610ec3816116ea565b92915050565b600081359050610ed881611701565b92915050565b600060208284031215610ef057600080fd5b6000610efe84828501610eb4565b91505092915050565b60008060408385031215610f1a57600080fd5b6000610f2885828601610eb4565b9250506020610f3985828601610ec9565b9150509250929050565b600060208284031215610f5557600080fd5b6000610f6384828501610ec9565b91505092915050565b6000610f788383610f84565b60208301905092915050565b610f8d81611417565b82525050565b610f9c81611417565b82525050565b6000610fad8261137c565b610fb7818561139f565b9350610fc28361136c565b8060005b83811015610ff3578151610fda8882610f6c565b9750610fe583611392565b925050600181019050610fc6565b5085935050505092915050565b61100981611429565b82525050565b600061101a82611387565b61102481856113b0565b935061103481856020860161145f565b61103d8161156b565b840191505092915050565b60006110556014836113b0565b91506110608261157c565b602082019050919050565b60006110786019836113b0565b9150611083826115a5565b602082019050919050565b600061109b600e836113b0565b91506110a6826115ce565b602082019050919050565b60006110be6012836113b0565b91506110c9826115f7565b602082019050919050565b60006110e16010836113b0565b91506110ec82611620565b602082019050919050565b60006111046021836113b0565b915061110f82611649565b604082019050919050565b60006111276019836113b0565b915061113282611698565b602082019050919050565b600061114a601e836113b0565b9150611155826116c1565b602082019050919050565b61116981611455565b82525050565b60006020820190506111846000830184610f93565b92915050565b600060208201905081810360008301526111a48184610fa2565b905092915050565b600060208201905081810360008301526111c6818461100f565b905092915050565b600060408201905081810360008301526111e8818561100f565b90506111f76020830184611160565b9392505050565b6000602082019050818103600083015261121781611048565b9050919050565b600060208201905081810360008301526112378161106b565b9050919050565b600060208201905081810360008301526112578161108e565b9050919050565b60006020820190508181036000830152611277816110b1565b9050919050565b60006020820190508181036000830152611297816110d4565b9050919050565b600060208201905081810360008301526112b7816110f7565b9050919050565b600060208201905081810360008301526112d78161111a565b9050919050565b600060208201905081810360008301526112f78161113d565b9050919050565b60006020820190506113136000830184611160565b92915050565b600060a08201905061132e6000830188611160565b61133b6020830187611000565b6113486040830186610f93565b6113556060830185611160565b6113626080830184611160565b9695505050505050565b6000819050602082019050919050565b600081519050919050565b600081519050919050565b6000602082019050919050565b600082825260208201905092915050565b600082825260208201905092915050565b60006113cc82611455565b91506113d783611455565b9250827fffffffffffffffffffffffffffffffffffffffffffffffffffffffffffffffff0382111561140c5761140b61150d565b5b828201905092915050565b600061142282611435565b9050919050565b60008115159050919050565b600073ffffffffffffffffffffffffffffffffffffffff82169050919050565b6000819050919050565b60005b8381101561147d578082015181840152602081019050611462565b8381111561148c576000848401525b50505050565b600060028204905060018216806114aa57607f821691505b602082108114156114be576114bd61153c565b5b50919050565b60006114cf82611455565b91507fffffffffffffffffffffffffffffffffffffffffffffffffffffffffffffffff8214156115025761150161150d565b5b600182019050919050565b7f4e487b7100000000000000000000000000000000000000000000000000000000600052601160045260246000fd5b7f4e487b7100000000000000000000000000000000000000000000000000000000600052602260045260246000fd5b6000601f19601f8301169050919050565b7f486173206e6f20726967687420746f20766f7465000000000000000000000000600082015250565b7f566f74696e67206861736e277420737461727465642079657400000000000000600082015250565b7f416c726561647920766f7465642e000000000000000000000000000000000000600082015250565b7f596f7520616c726561647920766f7465642e0000000000000000000000000000600082015250565b7f566f74696e672068617320656e64656400000000000000000000000000000000600082015250565b7f596f7520616c7265616479206861766520612064656c65676174656420766f7460008201527f6500000000000000000000000000000000000000000000000000000000000000602082015250565b7f466f756e64206c6f6f7020696e2064656c65676174696f6e2e00000000000000600082015250565b7f53656c662d64656c65676174696f6e20697320646973616c6c6f7765642e0000600082015250565b6116f381611417565b81146116fe57600080fd5b50565b61170a81611455565b811461171557600080fd5b5056fea264697066735822122078091c7fef6f9c3c01036ba5d456af6d90a7c24cb1a59ed2f2cfcd40869c8bf464736f6c63430008040033",
  "linkReferences": {},
  "deployedLinkReferences": {}
}